{
  "_format": "hh-sol-artifact-1",
  "contractName": "BidirectionalPaymentChannel",
  "sourceName": "contracts/OfflinePayment.sol",
  "abi": [
    {
      "inputs": [
        {
          "internalType": "address",
          "name": "_partyB",
          "type": "address"
        },
        {
          "internalType": "uint256",
          "name": "_duration",
          "type": "uint256"
        }
      ],
      "stateMutability": "payable",
      "type": "constructor"
    },
    {
      "anonymous": false,
      "inputs": [
        {
          "indexed": false,
          "internalType": "uint256",
          "name": "balanceA",
          "type": "uint256"
        },
        {
          "indexed": false,
          "internalType": "uint256",
          "name": "balanceB",
          "type": "uint256"
        },
        {
          "indexed": false,
          "internalType": "uint256",
          "name": "round",
          "type": "uint256"
        }
      ],
      "name": "ChannelClosed",
      "type": "event"
    },
    {
      "anonymous": false,
      "inputs": [
        {
          "indexed": true,
          "internalType": "address",
          "name": "from",
          "type": "address"
        },
        {
          "indexed": false,
          "internalType": "uint256",
          "name": "amount",
          "type": "uint256"
        }
      ],
      "name": "ChannelFunded",
      "type": "event"
    },
    {
      "anonymous": false,
      "inputs": [
        {
          "indexed": false,
          "internalType": "uint256",
          "name": "round",
          "type": "uint256"
        },
        {
          "indexed": false,
          "internalType": "uint256",
          "name": "expiryTime",
          "type": "uint256"
        },
        {
          "indexed": false,
          "internalType": "uint256",
          "name": "depositA",
          "type": "uint256"
        },
        {
          "indexed": false,
          "internalType": "uint256",
          "name": "depositB",
          "type": "uint256"
        }
      ],
      "name": "ChannelReopened",
      "type": "event"
    },
    {
      "anonymous": false,
      "inputs": [
        {
          "indexed": true,
          "internalType": "address",
          "name": "from",
          "type": "address"
        },
        {
          "indexed": true,
          "internalType": "address",
          "name": "to",
          "type": "address"
        },
        {
          "indexed": false,
          "internalType": "uint256",
          "name": "amount",
          "type": "uint256"
        }
      ],
      "name": "ChannelRequested",
      "type": "event"
    },
    {
      "anonymous": false,
      "inputs": [
        {
          "indexed": false,
          "internalType": "address",
          "name": "submitter",
          "type": "address"
        },
        {
          "indexed": false,
          "internalType": "uint256",
          "name": "balanceA",
          "type": "uint256"
        },
        {
          "indexed": false,
          "internalType": "uint256",
          "name": "balanceB",
          "type": "uint256"
        },
        {
          "indexed": false,
          "internalType": "uint256",
          "name": "round",
          "type": "uint256"
        }
      ],
      "name": "FinalStateSubmitted",
      "type": "event"
    },
    {
      "anonymous": false,
      "inputs": [
        {
          "indexed": true,
          "internalType": "address",
          "name": "to",
          "type": "address"
        },
        {
          "indexed": false,
          "internalType": "uint256",
          "name": "amount",
          "type": "uint256"
        },
        {
          "indexed": false,
          "internalType": "bool",
          "name": "success",
          "type": "bool"
        }
      ],
      "name": "PaymentAttempt",
      "type": "event"
    },
    {
      "anonymous": false,
      "inputs": [
        {
          "indexed": true,
          "internalType": "address",
          "name": "who",
          "type": "address"
        },
        {
          "indexed": false,
          "internalType": "uint256",
          "name": "amount",
          "type": "uint256"
        }
      ],
      "name": "Withdrawal",
      "type": "event"
    },
    {
      "inputs": [],
      "name": "contractBalance",
      "outputs": [
        {
          "internalType": "uint256",
          "name": "",
          "type": "uint256"
        }
      ],
      "stateMutability": "view",
      "type": "function"
    },
    {
      "inputs": [],
      "name": "depositA",
      "outputs": [
        {
          "internalType": "uint256",
          "name": "",
          "type": "uint256"
        }
      ],
      "stateMutability": "view",
      "type": "function"
    },
    {
      "inputs": [],
      "name": "depositB",
      "outputs": [
        {
          "internalType": "uint256",
          "name": "",
          "type": "uint256"
        }
      ],
      "stateMutability": "view",
      "type": "function"
    },
    {
      "inputs": [],
      "name": "expiryTime",
      "outputs": [
        {
          "internalType": "uint256",
          "name": "",
          "type": "uint256"
        }
      ],
      "stateMutability": "view",
      "type": "function"
    },
    {
      "inputs": [],
      "name": "fundChannel",
      "outputs": [],
      "stateMutability": "payable",
      "type": "function"
    },
    {
      "inputs": [],
      "name": "fundReceiver",
      "outputs": [],
      "stateMutability": "payable",
      "type": "function"
    },
    {
      "inputs": [],
      "name": "isActive",
      "outputs": [
        {
          "internalType": "bool",
          "name": "",
          "type": "bool"
        }
      ],
      "stateMutability": "view",
      "type": "function"
    },
    {
      "inputs": [],
      "name": "isClosed",
      "outputs": [
        {
          "internalType": "bool",
          "name": "",
          "type": "bool"
        }
      ],
      "stateMutability": "view",
      "type": "function"
    },
    {
      "inputs": [],
      "name": "partyA",
      "outputs": [
        {
          "internalType": "address",
          "name": "",
          "type": "address"
        }
      ],
      "stateMutability": "view",
      "type": "function"
    },
    {
      "inputs": [],
      "name": "partyB",
      "outputs": [
        {
          "internalType": "address",
          "name": "",
          "type": "address"
        }
      ],
      "stateMutability": "view",
      "type": "function"
    },
    {
      "inputs": [
        {
          "internalType": "address",
          "name": "",
          "type": "address"
        }
      ],
      "name": "pendingWithdrawals",
      "outputs": [
        {
          "internalType": "uint256",
          "name": "",
          "type": "uint256"
        }
      ],
      "stateMutability": "view",
      "type": "function"
    },
    {
      "inputs": [
        {
          "internalType": "uint256",
          "name": "_duration",
          "type": "uint256"
        }
      ],
      "name": "reopenChannel",
      "outputs": [],
      "stateMutability": "payable",
      "type": "function"
    },
    {
      "inputs": [],
      "name": "round",
      "outputs": [
        {
          "internalType": "uint256",
          "name": "",
          "type": "uint256"
        }
      ],
      "stateMutability": "view",
      "type": "function"
    },
    {
      "inputs": [
        {
          "internalType": "uint256",
          "name": "balanceA",
          "type": "uint256"
        },
        {
          "internalType": "uint256",
          "name": "balanceB",
          "type": "uint256"
        },
        {
          "internalType": "uint256",
          "name": "nonce",
          "type": "uint256"
        },
        {
          "internalType": "bytes",
          "name": "sigA",
          "type": "bytes"
        },
        {
          "internalType": "bytes",
          "name": "sigB",
          "type": "bytes"
        }
      ],
      "name": "submitFinalState",
      "outputs": [],
      "stateMutability": "nonpayable",
      "type": "function"
    },
    {
      "inputs": [],
      "name": "timeoutWithdraw",
      "outputs": [],
      "stateMutability": "nonpayable",
      "type": "function"
    },
    {
      "inputs": [
        {
          "internalType": "uint256",
          "name": "",
          "type": "uint256"
        },
        {
          "internalType": "bytes32",
          "name": "",
          "type": "bytes32"
        }
      ],
      "name": "usedStates",
      "outputs": [
        {
          "internalType": "bool",
          "name": "",
          "type": "bool"
        }
      ],
      "stateMutability": "view",
      "type": "function"
    },
    {
      "inputs": [],
      "name": "withdraw",
      "outputs": [],
      "stateMutability": "nonpayable",
      "type": "function"
    },
    {
      "stateMutability": "payable",
      "type": "receive"
    }
  ],
  "bytecode": "0x6080604052604051612d02380380612d0283398181016040528101906100259190610287565b60003411610068576040517f08c379a000000000000000000000000000000000000000000000000000000000815260040161005f90610324565b60405180910390fd5b336000806101000a81548173ffffffffffffffffffffffffffffffffffffffff021916908373ffffffffffffffffffffffffffffffffffffffff16021790555081600160006101000a81548173ffffffffffffffffffffffffffffffffffffffff021916908373ffffffffffffffffffffffffffffffffffffffff1602179055503460038190555080426100fc9190610373565b6002819055506000600560016101000a81548160ff0219169083151502179055506000600560006101000a81548160ff0219169083151502179055506001600681905550600160009054906101000a900473ffffffffffffffffffffffffffffffffffffffff1673ffffffffffffffffffffffffffffffffffffffff1660008054906101000a900473ffffffffffffffffffffffffffffffffffffffff1673ffffffffffffffffffffffffffffffffffffffff167f0e3f0cfac23f2f3e9fe519fc537efa0c7fa5c439652850956a60e5be43417c0b346040516101df91906103b6565b60405180910390a350506103d1565b600080fd5b600073ffffffffffffffffffffffffffffffffffffffff82169050919050565b600061021e826101f3565b9050919050565b61022e81610213565b811461023957600080fd5b50565b60008151905061024b81610225565b92915050565b6000819050919050565b61026481610251565b811461026f57600080fd5b50565b6000815190506102818161025b565b92915050565b6000806040838503121561029e5761029d6101ee565b5b60006102ac8582860161023c565b92505060206102bd85828601610272565b9150509250929050565b600082825260208201905092915050565b7f41206d757374206465706f7369742066756e6473000000000000000000000000600082015250565b600061030e6014836102c7565b9150610319826102d8565b602082019050919050565b6000602082019050818103600083015261033d81610301565b9050919050565b7f4e487b7100000000000000000000000000000000000000000000000000000000600052601160045260246000fd5b600061037e82610251565b915061038983610251565b92508282019050808211156103a1576103a0610344565b5b92915050565b6103b081610251565b82525050565b60006020820190506103cb60008301846103a7565b92915050565b612922806103e06000396000f3fe6080604052600436106101025760003560e01c8063671362c911610095578063c2b6b58c11610064578063c2b6b58c146102ca578063c3fcd42a146102f5578063f2daab0014610320578063f3f437031461034b578063fb4aa0a11461038857610109565b8063671362c9146102345780636ff17bb01461025d5780638b7afe2e1461027457806399bc0aea1461029f57610109565b806322f3e2d4116100d157806322f3e2d41461018a57806329040113146101b55780632c3264fd146101e05780633ccfd60b1461021d57610109565b806310e1d8ca1461010e57806313c7195414610139578063146ca53114610155578063157f83ad1461018057610109565b3661010957005b600080fd5b34801561011a57600080fd5b50610123610392565b6040516101309190611a0b565b60405180910390f35b610153600480360381019061014e9190611a70565b6103b6565b005b34801561016157600080fd5b5061016a610695565b6040516101779190611aac565b60405180910390f35b61018861069b565b005b34801561019657600080fd5b5061019f6108ef565b6040516101ac9190611ae2565b60405180910390f35b3480156101c157600080fd5b506101ca610902565b6040516101d79190611a0b565b60405180910390f35b3480156101ec57600080fd5b5061020760048036038101906102029190611b33565b610928565b6040516102149190611ae2565b60405180910390f35b34801561022957600080fd5b50610232610957565b005b34801561024057600080fd5b5061025b60048036038101906102569190611cb9565b610b21565b005b34801561026957600080fd5b50610272611032565b005b34801561028057600080fd5b5061028961146e565b6040516102969190611aac565b60405180910390f35b3480156102ab57600080fd5b506102b4611476565b6040516102c19190611aac565b60405180910390f35b3480156102d657600080fd5b506102df61147c565b6040516102ec9190611ae2565b60405180910390f35b34801561030157600080fd5b5061030a61148f565b6040516103179190611aac565b60405180910390f35b34801561032c57600080fd5b50610335611495565b6040516103429190611aac565b60405180910390f35b34801561035757600080fd5b50610372600480360381019061036d9190611d98565b61149b565b60405161037f9190611aac565b60405180910390f35b6103906114b3565b005b60008054906101000a900473ffffffffffffffffffffffffffffffffffffffff1681565b60008054906101000a900473ffffffffffffffffffffffffffffffffffffffff1673ffffffffffffffffffffffffffffffffffffffff163373ffffffffffffffffffffffffffffffffffffffff16148061045d5750600160009054906101000a900473ffffffffffffffffffffffffffffffffffffffff1673ffffffffffffffffffffffffffffffffffffffff163373ffffffffffffffffffffffffffffffffffffffff16145b61049c576040517f08c379a000000000000000000000000000000000000000000000000000000000815260040161049390611e22565b60405180910390fd5b600560009054906101000a900460ff16806104c45750600560019054906101000a900460ff16155b610503576040517f08c379a00000000000000000000000000000000000000000000000000000000081526004016104fa90611e8e565b60405180910390fd5b60003411156105985760008054906101000a900473ffffffffffffffffffffffffffffffffffffffff1673ffffffffffffffffffffffffffffffffffffffff163373ffffffffffffffffffffffffffffffffffffffff160361057d5734600360008282546105719190611edd565b92505081905550610597565b346004600082825461058f9190611edd565b925050819055505b5b60006003541180156105ac57506000600454115b6105eb576040517f08c379a00000000000000000000000000000000000000000000000000000000081526004016105e290611f83565b60405180910390fd5b6001600660008282546105fe9190611edd565b9250508190555080426106119190611edd565b6002819055506000600560006101000a81548160ff0219169083151502179055506001600560016101000a81548160ff0219169083151502179055507f1308c753ebdb5297d0132e4052eff8efd4247923df35a556b0a2de441873311260065460025460035460045460405161068a9493929190611fa3565b60405180910390a150565b60065481565b60008054906101000a900473ffffffffffffffffffffffffffffffffffffffff1673ffffffffffffffffffffffffffffffffffffffff163373ffffffffffffffffffffffffffffffffffffffff1614806107425750600160009054906101000a900473ffffffffffffffffffffffffffffffffffffffff1673ffffffffffffffffffffffffffffffffffffffff163373ffffffffffffffffffffffffffffffffffffffff16145b610781576040517f08c379a000000000000000000000000000000000000000000000000000000000815260040161077890611e22565b60405180910390fd5b600034116107c4576040517f08c379a00000000000000000000000000000000000000000000000000000000081526004016107bb90612034565b60405180910390fd5b60008054906101000a900473ffffffffffffffffffffffffffffffffffffffff1673ffffffffffffffffffffffffffffffffffffffff163373ffffffffffffffffffffffffffffffffffffffff16036108355734600360008282546108299190611edd565b9250508190555061084f565b34600460008282546108479190611edd565b925050819055505b600060035411801561086357506000600454115b1561089f576001600560016101000a81548160ff0219169083151502179055506000600560006101000a81548160ff0219169083151502179055505b3373ffffffffffffffffffffffffffffffffffffffff167f098da306ddd2537f6447ac21569057632d7b220958901a59f69213c81495e648346040516108e59190611aac565b60405180910390a2565b600560019054906101000a900460ff1681565b600160009054906101000a900473ffffffffffffffffffffffffffffffffffffffff1681565b60076020528160005260406000206020528060005260406000206000915091509054906101000a900460ff1681565b6000600860003373ffffffffffffffffffffffffffffffffffffffff1673ffffffffffffffffffffffffffffffffffffffff168152602001908152602001600020549050600081116109de576040517f08c379a00000000000000000000000000000000000000000000000000000000081526004016109d5906120a0565b60405180910390fd5b6000600860003373ffffffffffffffffffffffffffffffffffffffff1673ffffffffffffffffffffffffffffffffffffffff1681526020019081526020016000208190555060003373ffffffffffffffffffffffffffffffffffffffff1682604051610a49906120f1565b60006040518083038185875af1925050503d8060008114610a86576040519150601f19603f3d011682016040523d82523d6000602084013e610a8b565b606091505b5050905080610acf576040517f08c379a0000000000000000000000000000000000000000000000000000000008152600401610ac690612152565b60405180910390fd5b3373ffffffffffffffffffffffffffffffffffffffff167f7fcf532c15f0a6db0bd6d0e038bea71d30d808c7d98cb3bf7268a95bf5081b6583604051610b159190611aac565b60405180910390a25050565b60008054906101000a900473ffffffffffffffffffffffffffffffffffffffff1673ffffffffffffffffffffffffffffffffffffffff163373ffffffffffffffffffffffffffffffffffffffff161480610bc85750600160009054906101000a900473ffffffffffffffffffffffffffffffffffffffff1673ffffffffffffffffffffffffffffffffffffffff163373ffffffffffffffffffffffffffffffffffffffff16145b610c07576040517f08c379a0000000000000000000000000000000000000000000000000000000008152600401610bfe90611e22565b60405180910390fd5b600560019054906101000a900460ff16610c56576040517f08c379a0000000000000000000000000000000000000000000000000000000008152600401610c4d906121be565b60405180910390fd5b600560009054906101000a900460ff1615610ca6576040517f08c379a0000000000000000000000000000000000000000000000000000000008152600401610c9d9061222a565b60405180910390fd5b600085858530600654604051602001610cc39594939291906122b3565b604051602081830303815290604052805190602001209050600760006006548152602001908152602001600020600082815260200190815260200160002060009054906101000a900460ff1615610d4f576040517f08c379a0000000000000000000000000000000000000000000000000000000008152600401610d469061235e565b60405180910390fd5b6001600760006006548152602001908152602001600020600083815260200190815260200160002060006101000a81548160ff02191690831515021790555060008054906101000a900473ffffffffffffffffffffffffffffffffffffffff1673ffffffffffffffffffffffffffffffffffffffff16610dcf8285611661565b73ffffffffffffffffffffffffffffffffffffffff1614610e25576040517f08c379a0000000000000000000000000000000000000000000000000000000008152600401610e1c906123ca565b60405180910390fd5b600160009054906101000a900473ffffffffffffffffffffffffffffffffffffffff1673ffffffffffffffffffffffffffffffffffffffff16610e688284611661565b73ffffffffffffffffffffffffffffffffffffffff1614610ebe576040517f08c379a0000000000000000000000000000000000000000000000000000000008152600401610eb590612436565b60405180910390fd5b60008587610ecc9190611edd565b905047811115610f11576040517f08c379a0000000000000000000000000000000000000000000000000000000008152600401610f08906124c8565b60405180910390fd5b610f3b60008054906101000a900473ffffffffffffffffffffffffffffffffffffffff16886116de565b610f67600160009054906101000a900473ffffffffffffffffffffffffffffffffffffffff16876116de565b6001600560006101000a81548160ff0219169083151502179055506000600560016101000a81548160ff021916908315150217905550600060038190555060006004819055507fd8de528843bb0702e4e07df11aae5953ca75d43c7f65720f75488911b1ee2ec5338888600654604051610fe494939291906124e8565b60405180910390a17f26f6d077fd1d0e02462503b64a3e68d59be0440af92c91d7b881fab5bdf7811087876006546040516110219392919061252d565b60405180910390a150505050505050565b60008054906101000a900473ffffffffffffffffffffffffffffffffffffffff1673ffffffffffffffffffffffffffffffffffffffff163373ffffffffffffffffffffffffffffffffffffffff1614806110d95750600160009054906101000a900473ffffffffffffffffffffffffffffffffffffffff1673ffffffffffffffffffffffffffffffffffffffff163373ffffffffffffffffffffffffffffffffffffffff16145b611118576040517f08c379a000000000000000000000000000000000000000000000000000000000815260040161110f90611e22565b60405180910390fd5b60025442101561115d576040517f08c379a0000000000000000000000000000000000000000000000000000000008152600401611154906125b0565b60405180910390fd5b600560009054906101000a900460ff16156111ad576040517f08c379a00000000000000000000000000000000000000000000000000000000081526004016111a49061222a565b60405180910390fd5b6001600560006101000a81548160ff0219169083151502179055506000600560016101000a81548160ff021916908315150217905550600060035411156112fe5760008060009054906101000a900473ffffffffffffffffffffffffffffffffffffffff1673ffffffffffffffffffffffffffffffffffffffff16600354604051611237906120f1565b60006040518083038185875af1925050503d8060008114611274576040519150601f19603f3d011682016040523d82523d6000602084013e611279565b606091505b50509050806112fc57600354600860008060009054906101000a900473ffffffffffffffffffffffffffffffffffffffff1673ffffffffffffffffffffffffffffffffffffffff1673ffffffffffffffffffffffffffffffffffffffff16815260200190815260200160002060008282546112f49190611edd565b925050819055505b505b6000600454111561141b576000600160009054906101000a900473ffffffffffffffffffffffffffffffffffffffff1673ffffffffffffffffffffffffffffffffffffffff16600454604051611353906120f1565b60006040518083038185875af1925050503d8060008114611390576040519150601f19603f3d011682016040523d82523d6000602084013e611395565b606091505b50509050806114195760045460086000600160009054906101000a900473ffffffffffffffffffffffffffffffffffffffff1673ffffffffffffffffffffffffffffffffffffffff1673ffffffffffffffffffffffffffffffffffffffff16815260200190815260200160002060008282546114119190611edd565b925050819055505b505b600060038190555060006004819055507f26f6d077fd1d0e02462503b64a3e68d59be0440af92c91d7b881fab5bdf781106003546004546006546040516114649392919061252d565b60405180910390a1565b600047905090565b60025481565b600560009054906101000a900460ff1681565b60035481565b60045481565b60086020528060005260406000206000915090505481565b600160009054906101000a900473ffffffffffffffffffffffffffffffffffffffff1673ffffffffffffffffffffffffffffffffffffffff163373ffffffffffffffffffffffffffffffffffffffff1614611543576040517f08c379a000000000000000000000000000000000000000000000000000000000815260040161153a9061261c565b60405180910390fd5b60003411611586576040517f08c379a000000000000000000000000000000000000000000000000000000000815260040161157d90612688565b60405180910390fd5b34600460008282546115989190611edd565b9250508190555060006003541180156115b357506000600454115b156115ef576001600560016101000a81548160ff0219169083151502179055506000600560006101000a81548160ff0219169083151502179055505b600160009054906101000a900473ffffffffffffffffffffffffffffffffffffffff1673ffffffffffffffffffffffffffffffffffffffff167f098da306ddd2537f6447ac21569057632d7b220958901a59f69213c81495e648346040516116579190611aac565b60405180910390a2565b60008061166d846118b1565b9050600080600061167d866118e1565b925092509250600184848484604051600081526020016040526040516116a694939291906126d3565b6020604051602081039080840390855afa1580156116c8573d6000803e3d6000fd5b5050506020604051035194505050505092915050565b6000810361173c578173ffffffffffffffffffffffffffffffffffffffff167f267def2e3780dcbff823da15b8dfa64b7d55c787dacc77bc978d20315ce9708a82600160405161172f929190612718565b60405180910390a26118ad565b60008273ffffffffffffffffffffffffffffffffffffffff1682604051611762906120f1565b60006040518083038185875af1925050503d806000811461179f576040519150601f19603f3d011682016040523d82523d6000602084013e6117a4565b606091505b50509050806118595781600860008573ffffffffffffffffffffffffffffffffffffffff1673ffffffffffffffffffffffffffffffffffffffff16815260200190815260200160002060008282546117fc9190611edd565b925050819055508273ffffffffffffffffffffffffffffffffffffffff167f267def2e3780dcbff823da15b8dfa64b7d55c787dacc77bc978d20315ce9708a83600060405161184c929190612718565b60405180910390a26118ab565b8273ffffffffffffffffffffffffffffffffffffffff167f267def2e3780dcbff823da15b8dfa64b7d55c787dacc77bc978d20315ce9708a8360016040516118a2929190612718565b60405180910390a25b505b5050565b6000816040516020016118c491906127b9565b604051602081830303815290604052805190602001209050919050565b6000806000604184511461192a576040517f08c379a00000000000000000000000000000000000000000000000000000000081526004016119219061282b565b60405180910390fd5b60008060006020870151925060408701519150606087015160001a9050601b8160ff16101561196357601b81611960919061284b565b90505b601b8160ff1614806119785750601c8160ff16145b6119b7576040517f08c379a00000000000000000000000000000000000000000000000000000000081526004016119ae906128cc565b60405180910390fd5b8083839550955095505050509193909250565b600073ffffffffffffffffffffffffffffffffffffffff82169050919050565b60006119f5826119ca565b9050919050565b611a05816119ea565b82525050565b6000602082019050611a2060008301846119fc565b92915050565b6000604051905090565b600080fd5b600080fd5b6000819050919050565b611a4d81611a3a565b8114611a5857600080fd5b50565b600081359050611a6a81611a44565b92915050565b600060208284031215611a8657611a85611a30565b5b6000611a9484828501611a5b565b91505092915050565b611aa681611a3a565b82525050565b6000602082019050611ac16000830184611a9d565b92915050565b60008115159050919050565b611adc81611ac7565b82525050565b6000602082019050611af76000830184611ad3565b92915050565b6000819050919050565b611b1081611afd565b8114611b1b57600080fd5b50565b600081359050611b2d81611b07565b92915050565b60008060408385031215611b4a57611b49611a30565b5b6000611b5885828601611a5b565b9250506020611b6985828601611b1e565b9150509250929050565b600080fd5b600080fd5b6000601f19601f8301169050919050565b7f4e487b7100000000000000000000000000000000000000000000000000000000600052604160045260246000fd5b611bc682611b7d565b810181811067ffffffffffffffff82111715611be557611be4611b8e565b5b80604052505050565b6000611bf8611a26565b9050611c048282611bbd565b919050565b600067ffffffffffffffff821115611c2457611c23611b8e565b5b611c2d82611b7d565b9050602081019050919050565b82818337600083830152505050565b6000611c5c611c5784611c09565b611bee565b905082815260208101848484011115611c7857611c77611b78565b5b611c83848285611c3a565b509392505050565b600082601f830112611ca057611c9f611b73565b5b8135611cb0848260208601611c49565b91505092915050565b600080600080600060a08688031215611cd557611cd4611a30565b5b6000611ce388828901611a5b565b9550506020611cf488828901611a5b565b9450506040611d0588828901611a5b565b935050606086013567ffffffffffffffff811115611d2657611d25611a35565b5b611d3288828901611c8b565b925050608086013567ffffffffffffffff811115611d5357611d52611a35565b5b611d5f88828901611c8b565b9150509295509295909350565b611d75816119ea565b8114611d8057600080fd5b50565b600081359050611d9281611d6c565b92915050565b600060208284031215611dae57611dad611a30565b5b6000611dbc84828501611d83565b91505092915050565b600082825260208201905092915050565b7f4e6f742061206368616e6e656c207061727469636970616e7400000000000000600082015250565b6000611e0c601983611dc5565b9150611e1782611dd6565b602082019050919050565b60006020820190508181036000830152611e3b81611dff565b9050919050565b7f4368616e6e656c2063757272656e746c79206163746976650000000000000000600082015250565b6000611e78601883611dc5565b9150611e8382611e42565b602082019050919050565b60006020820190508181036000830152611ea781611e6b565b9050919050565b7f4e487b7100000000000000000000000000000000000000000000000000000000600052601160045260246000fd5b6000611ee882611a3a565b9150611ef383611a3a565b9250828201905080821115611f0b57611f0a611eae565b5b92915050565b7f426f74682070617274696573206d7573742068617665206465706f736974732060008201527f746f2072656f70656e0000000000000000000000000000000000000000000000602082015250565b6000611f6d602983611dc5565b9150611f7882611f11565b604082019050919050565b60006020820190508181036000830152611f9c81611f60565b9050919050565b6000608082019050611fb86000830187611a9d565b611fc56020830186611a9d565b611fd26040830185611a9d565b611fdf6060830184611a9d565b95945050505050565b7f4d7573742073656e642045544820746f2066756e640000000000000000000000600082015250565b600061201e601583611dc5565b915061202982611fe8565b602082019050919050565b6000602082019050818103600083015261204d81612011565b9050919050565b7f4e6f2066756e647320746f207769746864726177000000000000000000000000600082015250565b600061208a601483611dc5565b915061209582612054565b602082019050919050565b600060208201905081810360008301526120b98161207d565b9050919050565b600081905092915050565b50565b60006120db6000836120c0565b91506120e6826120cb565b600082019050919050565b60006120fc826120ce565b9150819050919050565b7f5769746864726177206661696c65640000000000000000000000000000000000600082015250565b600061213c600f83611dc5565b915061214782612106565b602082019050919050565b6000602082019050818103600083015261216b8161212f565b9050919050565b7f4368616e6e656c206e6f74206163746976652079657400000000000000000000600082015250565b60006121a8601683611dc5565b91506121b382612172565b602082019050919050565b600060208201905081810360008301526121d78161219b565b9050919050565b7f4368616e6e656c20697320616c726561647920636c6f73656400000000000000600082015250565b6000612214601983611dc5565b915061221f826121de565b602082019050919050565b6000602082019050818103600083015261224381612207565b9050919050565b6000819050919050565b61226561226082611a3a565b61224a565b82525050565b60008160601b9050919050565b60006122838261226b565b9050919050565b600061229582612278565b9050919050565b6122ad6122a8826119ea565b61228a565b82525050565b60006122bf8288612254565b6020820191506122cf8287612254565b6020820191506122df8286612254565b6020820191506122ef828561229c565b6014820191506122ff8284612254565b6020820191508190509695505050505050565b7f537461746520616c726561647920757365640000000000000000000000000000600082015250565b6000612348601283611dc5565b915061235382612312565b602082019050919050565b600060208201905081810360008301526123778161233b565b9050919050565b7f496e76616c6964207369676e617475726520666f722050617274792041000000600082015250565b60006123b4601d83611dc5565b91506123bf8261237e565b602082019050919050565b600060208201905081810360008301526123e3816123a7565b9050919050565b7f496e76616c6964207369676e617475726520666f722050617274792042000000600082015250565b6000612420601d83611dc5565b915061242b826123ea565b602082019050919050565b6000602082019050818103600083015261244f81612413565b9050919050565b7f496e76616c69642062616c616e6365733a206e6f7420656e6f7567682066756e60008201527f647320696e20636f6e7472616374000000000000000000000000000000000000602082015250565b60006124b2602e83611dc5565b91506124bd82612456565b604082019050919050565b600060208201905081810360008301526124e1816124a5565b9050919050565b60006080820190506124fd60008301876119fc565b61250a6020830186611a9d565b6125176040830185611a9d565b6125246060830184611a9d565b95945050505050565b60006060820190506125426000830186611a9d565b61254f6020830185611a9d565b61255c6040830184611a9d565b949350505050565b7f4368616e6e656c20686173206e6f742065787069726564207965740000000000600082015250565b600061259a601b83611dc5565b91506125a582612564565b602082019050919050565b600060208201905081810360008301526125c98161258d565b9050919050565b7f4f6e6c792072656365697665722063616e2066756e6400000000000000000000600082015250565b6000612606601683611dc5565b9150612611826125d0565b602082019050919050565b60006020820190508181036000830152612635816125f9565b9050919050565b7f5265636569766572206d757374206465706f7369742066756e64730000000000600082015250565b6000612672601b83611dc5565b915061267d8261263c565b602082019050919050565b600060208201905081810360008301526126a181612665565b9050919050565b6126b181611afd565b82525050565b600060ff82169050919050565b6126cd816126b7565b82525050565b60006080820190506126e860008301876126a8565b6126f560208301866126c4565b61270260408301856126a8565b61270f60608301846126a8565b95945050505050565b600060408201905061272d6000830185611a9d565b61273a6020830184611ad3565b9392505050565b600081905092915050565b7f19457468657265756d205369676e6564204d6573736167653a0a333200000000600082015250565b6000612782601c83612741565b915061278d8261274c565b601c82019050919050565b6000819050919050565b6127b36127ae82611afd565b612798565b82525050565b60006127c482612775565b91506127d082846127a2565b60208201915081905092915050565b7f496e76616c6964207369676e6174757265206c656e6774680000000000000000600082015250565b6000612815601883611dc5565b9150612820826127df565b602082019050919050565b6000602082019050818103600083015261284481612808565b9050919050565b6000612856826126b7565b9150612861836126b7565b9250828201905060ff81111561287a57612879611eae565b5b92915050565b7f496e76616c696420760000000000000000000000000000000000000000000000600082015250565b60006128b6600983611dc5565b91506128c182612880565b602082019050919050565b600060208201905081810360008301526128e5816128a9565b905091905056fea26469706673582212204d8a408d14d2389294138029a75318c3fabc08322aa312862d2bd1697260cb7364736f6c634300081c0033",
  "linkReferences": {},
  "deployedLinkReferences": {}
}