{
  "_format": "hh-sol-artifact-1",
  "contractName": "BidirectionalPaymentChannel",
  "sourceName": "contracts/OfflinePayment.sol",
  "abi": [
    {
      "inputs": [
        {
          "internalType": "address",
          "name": "_partyB",
          "type": "address"
        },
        {
          "internalType": "uint256",
          "name": "_duration",
          "type": "uint256"
        }
      ],
      "stateMutability": "payable",
      "type": "constructor"
    },
    {
      "anonymous": false,
      "inputs": [
        {
          "indexed": false,
          "internalType": "uint256",
          "name": "balanceA",
          "type": "uint256"
        },
        {
          "indexed": false,
          "internalType": "uint256",
          "name": "balanceB",
          "type": "uint256"
        }
      ],
      "name": "ChannelClosed",
      "type": "event"
    },
    {
      "anonymous": false,
      "inputs": [
        {
          "indexed": true,
          "internalType": "address",
          "name": "from",
          "type": "address"
        },
        {
          "indexed": false,
          "internalType": "uint256",
          "name": "amount",
          "type": "uint256"
        }
      ],
      "name": "ChannelFunded",
      "type": "event"
    },
    {
      "anonymous": false,
      "inputs": [
        {
          "indexed": true,
          "internalType": "address",
          "name": "from",
          "type": "address"
        },
        {
          "indexed": true,
          "internalType": "address",
          "name": "to",
          "type": "address"
        },
        {
          "indexed": false,
          "internalType": "uint256",
          "name": "amount",
          "type": "uint256"
        }
      ],
      "name": "ChannelRequested",
      "type": "event"
    },
    {
      "anonymous": false,
      "inputs": [
        {
          "indexed": false,
          "internalType": "address",
          "name": "submitter",
          "type": "address"
        },
        {
          "indexed": false,
          "internalType": "uint256",
          "name": "balanceA",
          "type": "uint256"
        },
        {
          "indexed": false,
          "internalType": "uint256",
          "name": "balanceB",
          "type": "uint256"
        }
      ],
      "name": "FinalStateSubmitted",
      "type": "event"
    },
    {
      "anonymous": false,
      "inputs": [
        {
          "indexed": true,
          "internalType": "address",
          "name": "to",
          "type": "address"
        },
        {
          "indexed": false,
          "internalType": "uint256",
          "name": "amount",
          "type": "uint256"
        },
        {
          "indexed": false,
          "internalType": "bool",
          "name": "success",
          "type": "bool"
        }
      ],
      "name": "PaymentAttempt",
      "type": "event"
    },
    {
      "anonymous": false,
      "inputs": [
        {
          "indexed": true,
          "internalType": "address",
          "name": "who",
          "type": "address"
        },
        {
          "indexed": false,
          "internalType": "uint256",
          "name": "amount",
          "type": "uint256"
        }
      ],
      "name": "Withdrawal",
      "type": "event"
    },
    {
      "inputs": [],
      "name": "depositA",
      "outputs": [
        {
          "internalType": "uint256",
          "name": "",
          "type": "uint256"
        }
      ],
      "stateMutability": "view",
      "type": "function"
    },
    {
      "inputs": [],
      "name": "depositB",
      "outputs": [
        {
          "internalType": "uint256",
          "name": "",
          "type": "uint256"
        }
      ],
      "stateMutability": "view",
      "type": "function"
    },
    {
      "inputs": [],
      "name": "expiryTime",
      "outputs": [
        {
          "internalType": "uint256",
          "name": "",
          "type": "uint256"
        }
      ],
      "stateMutability": "view",
      "type": "function"
    },
    {
      "inputs": [],
      "name": "fundReceiver",
      "outputs": [],
      "stateMutability": "payable",
      "type": "function"
    },
    {
      "inputs": [],
      "name": "isActive",
      "outputs": [
        {
          "internalType": "bool",
          "name": "",
          "type": "bool"
        }
      ],
      "stateMutability": "view",
      "type": "function"
    },
    {
      "inputs": [],
      "name": "isClosed",
      "outputs": [
        {
          "internalType": "bool",
          "name": "",
          "type": "bool"
        }
      ],
      "stateMutability": "view",
      "type": "function"
    },
    {
      "inputs": [],
      "name": "isSettled",
      "outputs": [
        {
          "internalType": "bool",
          "name": "",
          "type": "bool"
        }
      ],
      "stateMutability": "view",
      "type": "function"
    },
    {
      "inputs": [],
      "name": "partyA",
      "outputs": [
        {
          "internalType": "address",
          "name": "",
          "type": "address"
        }
      ],
      "stateMutability": "view",
      "type": "function"
    },
    {
      "inputs": [],
      "name": "partyB",
      "outputs": [
        {
          "internalType": "address",
          "name": "",
          "type": "address"
        }
      ],
      "stateMutability": "view",
      "type": "function"
    },
    {
      "inputs": [
        {
          "internalType": "address",
          "name": "",
          "type": "address"
        }
      ],
      "name": "pendingWithdrawals",
      "outputs": [
        {
          "internalType": "uint256",
          "name": "",
          "type": "uint256"
        }
      ],
      "stateMutability": "view",
      "type": "function"
    },
    {
      "inputs": [
        {
          "internalType": "uint256",
          "name": "balanceA",
          "type": "uint256"
        },
        {
          "internalType": "uint256",
          "name": "balanceB",
          "type": "uint256"
        },
        {
          "internalType": "uint256",
          "name": "nonce",
          "type": "uint256"
        },
        {
          "internalType": "bytes",
          "name": "sigA",
          "type": "bytes"
        },
        {
          "internalType": "bytes",
          "name": "sigB",
          "type": "bytes"
        }
      ],
      "name": "submitFinalState",
      "outputs": [],
      "stateMutability": "nonpayable",
      "type": "function"
    },
    {
      "inputs": [],
      "name": "timeoutWithdraw",
      "outputs": [],
      "stateMutability": "nonpayable",
      "type": "function"
    },
    {
      "inputs": [
        {
          "internalType": "bytes32",
          "name": "",
          "type": "bytes32"
        }
      ],
      "name": "usedStates",
      "outputs": [
        {
          "internalType": "bool",
          "name": "",
          "type": "bool"
        }
      ],
      "stateMutability": "view",
      "type": "function"
    },
    {
      "inputs": [],
      "name": "withdraw",
      "outputs": [],
      "stateMutability": "nonpayable",
      "type": "function"
    },
    {
      "stateMutability": "payable",
      "type": "receive"
    }
  ],
  "bytecode": "0x60806040526040516125d63803806125d683398181016040528101906100259190610264565b60003411610068576040517f08c379a000000000000000000000000000000000000000000000000000000000815260040161005f90610301565b60405180910390fd5b336000806101000a81548173ffffffffffffffffffffffffffffffffffffffff021916908373ffffffffffffffffffffffffffffffffffffffff16021790555081600160006101000a81548173ffffffffffffffffffffffffffffffffffffffff021916908373ffffffffffffffffffffffffffffffffffffffff1602179055503460038190555080426100fc9190610350565b6002819055506000600560016101000a81548160ff021916908315150217905550600160009054906101000a900473ffffffffffffffffffffffffffffffffffffffff1673ffffffffffffffffffffffffffffffffffffffff1660008054906101000a900473ffffffffffffffffffffffffffffffffffffffff1673ffffffffffffffffffffffffffffffffffffffff167f0e3f0cfac23f2f3e9fe519fc537efa0c7fa5c439652850956a60e5be43417c0b346040516101bc9190610393565b60405180910390a350506103ae565b600080fd5b600073ffffffffffffffffffffffffffffffffffffffff82169050919050565b60006101fb826101d0565b9050919050565b61020b816101f0565b811461021657600080fd5b50565b60008151905061022881610202565b92915050565b6000819050919050565b6102418161022e565b811461024c57600080fd5b50565b60008151905061025e81610238565b92915050565b6000806040838503121561027b5761027a6101cb565b5b600061028985828601610219565b925050602061029a8582860161024f565b9150509250929050565b600082825260208201905092915050565b7f41206d757374206465706f7369742066756e6473000000000000000000000000600082015250565b60006102eb6014836102a4565b91506102f6826102b5565b602082019050919050565b6000602082019050818103600083015261031a816102de565b9050919050565b7f4e487b7100000000000000000000000000000000000000000000000000000000600052601160045260246000fd5b600061035b8261022e565b91506103668361022e565b925082820190508082111561037e5761037d610321565b5b92915050565b61038d8161022e565b82525050565b60006020820190506103a86000830184610384565b92915050565b612219806103bd6000396000f3fe6080604052600436106100e15760003560e01c8063809bd1ec1161007f578063c3fcd42a11610059578063c3fcd42a14610283578063f2daab00146102ae578063f3f43703146102d9578063fb4aa0a114610316576100e8565b8063809bd1ec146101f057806399bc0aea1461022d578063c2b6b58c14610258576100e8565b80633270bb5b116100bb5780633270bb5b1461016e5780633ccfd60b14610199578063671362c9146101b05780636ff17bb0146101d9576100e8565b806310e1d8ca146100ed57806322f3e2d4146101185780632904011314610143576100e8565b366100e857005b600080fd5b3480156100f957600080fd5b50610102610320565b60405161010f9190611446565b60405180910390f35b34801561012457600080fd5b5061012d610344565b60405161013a919061147c565b60405180910390f35b34801561014f57600080fd5b50610158610357565b6040516101659190611446565b60405180910390f35b34801561017a57600080fd5b5061018361037d565b604051610190919061147c565b60405180910390f35b3480156101a557600080fd5b506101ae610390565b005b3480156101bc57600080fd5b506101d760048036038101906101d29190611627565b61055a565b005b3480156101e557600080fd5b506101ee610a79565b005b3480156101fc57600080fd5b5061021760048036038101906102129190611710565b610e86565b604051610224919061147c565b60405180910390f35b34801561023957600080fd5b50610242610ea6565b60405161024f919061174c565b60405180910390f35b34801561026457600080fd5b5061026d610eac565b60405161027a919061147c565b60405180910390f35b34801561028f57600080fd5b50610298610ebf565b6040516102a5919061174c565b60405180910390f35b3480156102ba57600080fd5b506102c3610ec5565b6040516102d0919061174c565b60405180910390f35b3480156102e557600080fd5b5061030060048036038101906102fb9190611793565b610ecb565b60405161030d919061174c565b60405180910390f35b61031e610ee3565b005b60008054906101000a900473ffffffffffffffffffffffffffffffffffffffff1681565b600560019054906101000a900460ff1681565b600160009054906101000a900473ffffffffffffffffffffffffffffffffffffffff1681565b600560029054906101000a900460ff1681565b6000600760003373ffffffffffffffffffffffffffffffffffffffff1673ffffffffffffffffffffffffffffffffffffffff16815260200190815260200160002054905060008111610417576040517f08c379a000000000000000000000000000000000000000000000000000000000815260040161040e9061181d565b60405180910390fd5b6000600760003373ffffffffffffffffffffffffffffffffffffffff1673ffffffffffffffffffffffffffffffffffffffff1681526020019081526020016000208190555060003373ffffffffffffffffffffffffffffffffffffffff16826040516104829061186e565b60006040518083038185875af1925050503d80600081146104bf576040519150601f19603f3d011682016040523d82523d6000602084013e6104c4565b606091505b5050905080610508576040517f08c379a00000000000000000000000000000000000000000000000000000000081526004016104ff906118cf565b60405180910390fd5b3373ffffffffffffffffffffffffffffffffffffffff167f7fcf532c15f0a6db0bd6d0e038bea71d30d808c7d98cb3bf7268a95bf5081b658360405161054e919061174c565b60405180910390a25050565b60008054906101000a900473ffffffffffffffffffffffffffffffffffffffff1673ffffffffffffffffffffffffffffffffffffffff163373ffffffffffffffffffffffffffffffffffffffff1614806106015750600160009054906101000a900473ffffffffffffffffffffffffffffffffffffffff1673ffffffffffffffffffffffffffffffffffffffff163373ffffffffffffffffffffffffffffffffffffffff16145b610640576040517f08c379a00000000000000000000000000000000000000000000000000000000081526004016106379061193b565b60405180910390fd5b600560019054906101000a900460ff1661068f576040517f08c379a0000000000000000000000000000000000000000000000000000000008152600401610686906119a7565b60405180910390fd5b600560009054906101000a900460ff16156106df576040517f08c379a00000000000000000000000000000000000000000000000000000000081526004016106d690611a13565b60405180910390fd5b600560029054906101000a900460ff161561072f576040517f08c379a000000000000000000000000000000000000000000000000000000000815260040161072690611a7f565b60405180910390fd5b6000858585306040516020016107489493929190611b08565b6040516020818303038152906040528051906020012090506006600082815260200190815260200160002060009054906101000a900460ff16156107c1576040517f08c379a00000000000000000000000000000000000000000000000000000000081526004016107b890611ba2565b60405180910390fd5b60016006600083815260200190815260200160002060006101000a81548160ff02191690831515021790555060008054906101000a900473ffffffffffffffffffffffffffffffffffffffff1673ffffffffffffffffffffffffffffffffffffffff1661082e828561109c565b73ffffffffffffffffffffffffffffffffffffffff1614610884576040517f08c379a000000000000000000000000000000000000000000000000000000000815260040161087b90611c0e565b60405180910390fd5b600160009054906101000a900473ffffffffffffffffffffffffffffffffffffffff1673ffffffffffffffffffffffffffffffffffffffff166108c7828461109c565b73ffffffffffffffffffffffffffffffffffffffff161461091d576040517f08c379a000000000000000000000000000000000000000000000000000000000815260040161091490611c7a565b60405180910390fd5b6000858761092b9190611cc9565b905047811115610970576040517f08c379a000000000000000000000000000000000000000000000000000000000815260040161096790611d6f565b60405180910390fd5b61099a60008054906101000a900473ffffffffffffffffffffffffffffffffffffffff1688611119565b6109c6600160009054906101000a900473ffffffffffffffffffffffffffffffffffffffff1687611119565b6001600560006101000a81548160ff0219169083151502179055506001600560026101000a81548160ff0219169083151502179055507ff291f294338e6549f4168c3d604247a724a918730f7cf7ae57753be0acb0657c338888604051610a2f93929190611d8f565b60405180910390a17f1273b19bd37db7541ec10aebcb7899427619b2685565bd3c7b184c2732f8118e8787604051610a68929190611dc6565b60405180910390a150505050505050565b60008054906101000a900473ffffffffffffffffffffffffffffffffffffffff1673ffffffffffffffffffffffffffffffffffffffff163373ffffffffffffffffffffffffffffffffffffffff161480610b205750600160009054906101000a900473ffffffffffffffffffffffffffffffffffffffff1673ffffffffffffffffffffffffffffffffffffffff163373ffffffffffffffffffffffffffffffffffffffff16145b610b5f576040517f08c379a0000000000000000000000000000000000000000000000000000000008152600401610b569061193b565b60405180910390fd5b600254421015610ba4576040517f08c379a0000000000000000000000000000000000000000000000000000000008152600401610b9b90611e3b565b60405180910390fd5b600560009054906101000a900460ff1615610bf4576040517f08c379a0000000000000000000000000000000000000000000000000000000008152600401610beb90611a13565b60405180910390fd5b6001600560006101000a81548160ff02191690831515021790555060006003541115610d2a5760008060009054906101000a900473ffffffffffffffffffffffffffffffffffffffff1673ffffffffffffffffffffffffffffffffffffffff16600354604051610c639061186e565b60006040518083038185875af1925050503d8060008114610ca0576040519150601f19603f3d011682016040523d82523d6000602084013e610ca5565b606091505b5050905080610d2857600354600760008060009054906101000a900473ffffffffffffffffffffffffffffffffffffffff1673ffffffffffffffffffffffffffffffffffffffff1673ffffffffffffffffffffffffffffffffffffffff1681526020019081526020016000206000828254610d209190611cc9565b925050819055505b505b60006004541115610e47576000600160009054906101000a900473ffffffffffffffffffffffffffffffffffffffff1673ffffffffffffffffffffffffffffffffffffffff16600454604051610d7f9061186e565b60006040518083038185875af1925050503d8060008114610dbc576040519150601f19603f3d011682016040523d82523d6000602084013e610dc1565b606091505b5050905080610e455760045460076000600160009054906101000a900473ffffffffffffffffffffffffffffffffffffffff1673ffffffffffffffffffffffffffffffffffffffff1673ffffffffffffffffffffffffffffffffffffffff1681526020019081526020016000206000828254610e3d9190611cc9565b925050819055505b505b7f1273b19bd37db7541ec10aebcb7899427619b2685565bd3c7b184c2732f8118e600354600454604051610e7c929190611dc6565b60405180910390a1565b60066020528060005260406000206000915054906101000a900460ff1681565b60025481565b600560009054906101000a900460ff1681565b60035481565b60045481565b60076020528060005260406000206000915090505481565b600160009054906101000a900473ffffffffffffffffffffffffffffffffffffffff1673ffffffffffffffffffffffffffffffffffffffff163373ffffffffffffffffffffffffffffffffffffffff1614610f73576040517f08c379a0000000000000000000000000000000000000000000000000000000008152600401610f6a90611ea7565b60405180910390fd5b600560019054906101000a900460ff1615610fc3576040517f08c379a0000000000000000000000000000000000000000000000000000000008152600401610fba90611f13565b60405180910390fd5b60003411611006576040517f08c379a0000000000000000000000000000000000000000000000000000000008152600401610ffd90611f7f565b60405180910390fd5b346004819055506001600560016101000a81548160ff021916908315150217905550600160009054906101000a900473ffffffffffffffffffffffffffffffffffffffff1673ffffffffffffffffffffffffffffffffffffffff167f098da306ddd2537f6447ac21569057632d7b220958901a59f69213c81495e648600454604051611092919061174c565b60405180910390a2565b6000806110a8846112ec565b905060008060006110b88661131c565b925092509250600184848484604051600081526020016040526040516110e19493929190611fca565b6020604051602081039080840390855afa158015611103573d6000803e3d6000fd5b5050506020604051035194505050505092915050565b60008103611177578173ffffffffffffffffffffffffffffffffffffffff167f267def2e3780dcbff823da15b8dfa64b7d55c787dacc77bc978d20315ce9708a82600160405161116a92919061200f565b60405180910390a26112e8565b60008273ffffffffffffffffffffffffffffffffffffffff168260405161119d9061186e565b60006040518083038185875af1925050503d80600081146111da576040519150601f19603f3d011682016040523d82523d6000602084013e6111df565b606091505b50509050806112945781600760008573ffffffffffffffffffffffffffffffffffffffff1673ffffffffffffffffffffffffffffffffffffffff16815260200190815260200160002060008282546112379190611cc9565b925050819055508273ffffffffffffffffffffffffffffffffffffffff167f267def2e3780dcbff823da15b8dfa64b7d55c787dacc77bc978d20315ce9708a83600060405161128792919061200f565b60405180910390a26112e6565b8273ffffffffffffffffffffffffffffffffffffffff167f267def2e3780dcbff823da15b8dfa64b7d55c787dacc77bc978d20315ce9708a8360016040516112dd92919061200f565b60405180910390a25b505b5050565b6000816040516020016112ff91906120b0565b604051602081830303815290604052805190602001209050919050565b60008060006041845114611365576040517f08c379a000000000000000000000000000000000000000000000000000000000815260040161135c90612122565b60405180910390fd5b60008060006020870151925060408701519150606087015160001a9050601b8160ff16101561139e57601b8161139b9190612142565b90505b601b8160ff1614806113b35750601c8160ff16145b6113f2576040517f08c379a00000000000000000000000000000000000000000000000000000000081526004016113e9906121c3565b60405180910390fd5b8083839550955095505050509193909250565b600073ffffffffffffffffffffffffffffffffffffffff82169050919050565b600061143082611405565b9050919050565b61144081611425565b82525050565b600060208201905061145b6000830184611437565b92915050565b60008115159050919050565b61147681611461565b82525050565b6000602082019050611491600083018461146d565b92915050565b6000604051905090565b600080fd5b600080fd5b6000819050919050565b6114be816114ab565b81146114c957600080fd5b50565b6000813590506114db816114b5565b92915050565b600080fd5b600080fd5b6000601f19601f8301169050919050565b7f4e487b7100000000000000000000000000000000000000000000000000000000600052604160045260246000fd5b611534826114eb565b810181811067ffffffffffffffff82111715611553576115526114fc565b5b80604052505050565b6000611566611497565b9050611572828261152b565b919050565b600067ffffffffffffffff821115611592576115916114fc565b5b61159b826114eb565b9050602081019050919050565b82818337600083830152505050565b60006115ca6115c584611577565b61155c565b9050828152602081018484840111156115e6576115e56114e6565b5b6115f18482856115a8565b509392505050565b600082601f83011261160e5761160d6114e1565b5b813561161e8482602086016115b7565b91505092915050565b600080600080600060a08688031215611643576116426114a1565b5b6000611651888289016114cc565b9550506020611662888289016114cc565b9450506040611673888289016114cc565b935050606086013567ffffffffffffffff811115611694576116936114a6565b5b6116a0888289016115f9565b925050608086013567ffffffffffffffff8111156116c1576116c06114a6565b5b6116cd888289016115f9565b9150509295509295909350565b6000819050919050565b6116ed816116da565b81146116f857600080fd5b50565b60008135905061170a816116e4565b92915050565b600060208284031215611726576117256114a1565b5b6000611734848285016116fb565b91505092915050565b611746816114ab565b82525050565b6000602082019050611761600083018461173d565b92915050565b61177081611425565b811461177b57600080fd5b50565b60008135905061178d81611767565b92915050565b6000602082840312156117a9576117a86114a1565b5b60006117b78482850161177e565b91505092915050565b600082825260208201905092915050565b7f4e6f2066756e647320746f207769746864726177000000000000000000000000600082015250565b60006118076014836117c0565b9150611812826117d1565b602082019050919050565b60006020820190508181036000830152611836816117fa565b9050919050565b600081905092915050565b50565b600061185860008361183d565b915061186382611848565b600082019050919050565b60006118798261184b565b9150819050919050565b7f5769746864726177206661696c65640000000000000000000000000000000000600082015250565b60006118b9600f836117c0565b91506118c482611883565b602082019050919050565b600060208201905081810360008301526118e8816118ac565b9050919050565b7f4e6f742061206368616e6e656c207061727469636970616e7400000000000000600082015250565b60006119256019836117c0565b9150611930826118ef565b602082019050919050565b6000602082019050818103600083015261195481611918565b9050919050565b7f4368616e6e656c206e6f74206163746976652079657400000000000000000000600082015250565b60006119916016836117c0565b915061199c8261195b565b602082019050919050565b600060208201905081810360008301526119c081611984565b9050919050565b7f4368616e6e656c20697320616c726561647920636c6f73656400000000000000600082015250565b60006119fd6019836117c0565b9150611a08826119c7565b602082019050919050565b60006020820190508181036000830152611a2c816119f0565b9050919050565b7f4368616e6e656c20616c726561647920736574746c6564000000000000000000600082015250565b6000611a696017836117c0565b9150611a7482611a33565b602082019050919050565b60006020820190508181036000830152611a9881611a5c565b9050919050565b6000819050919050565b611aba611ab5826114ab565b611a9f565b82525050565b60008160601b9050919050565b6000611ad882611ac0565b9050919050565b6000611aea82611acd565b9050919050565b611b02611afd82611425565b611adf565b82525050565b6000611b148287611aa9565b602082019150611b248286611aa9565b602082019150611b348285611aa9565b602082019150611b448284611af1565b60148201915081905095945050505050565b7f537461746520616c726561647920757365640000000000000000000000000000600082015250565b6000611b8c6012836117c0565b9150611b9782611b56565b602082019050919050565b60006020820190508181036000830152611bbb81611b7f565b9050919050565b7f496e76616c6964207369676e617475726520666f722050617274792041000000600082015250565b6000611bf8601d836117c0565b9150611c0382611bc2565b602082019050919050565b60006020820190508181036000830152611c2781611beb565b9050919050565b7f496e76616c6964207369676e617475726520666f722050617274792042000000600082015250565b6000611c64601d836117c0565b9150611c6f82611c2e565b602082019050919050565b60006020820190508181036000830152611c9381611c57565b9050919050565b7f4e487b7100000000000000000000000000000000000000000000000000000000600052601160045260246000fd5b6000611cd4826114ab565b9150611cdf836114ab565b9250828201905080821115611cf757611cf6611c9a565b5b92915050565b7f496e76616c69642062616c616e6365733a206e6f7420656e6f7567682066756e60008201527f647320696e20636f6e7472616374000000000000000000000000000000000000602082015250565b6000611d59602e836117c0565b9150611d6482611cfd565b604082019050919050565b60006020820190508181036000830152611d8881611d4c565b9050919050565b6000606082019050611da46000830186611437565b611db1602083018561173d565b611dbe604083018461173d565b949350505050565b6000604082019050611ddb600083018561173d565b611de8602083018461173d565b9392505050565b7f4368616e6e656c20686173206e6f742065787069726564207965740000000000600082015250565b6000611e25601b836117c0565b9150611e3082611def565b602082019050919050565b60006020820190508181036000830152611e5481611e18565b9050919050565b7f4f6e6c792072656365697665722063616e2066756e6400000000000000000000600082015250565b6000611e916016836117c0565b9150611e9c82611e5b565b602082019050919050565b60006020820190508181036000830152611ec081611e84565b9050919050565b7f4368616e6e656c20616c72656164792061637469766500000000000000000000600082015250565b6000611efd6016836117c0565b9150611f0882611ec7565b602082019050919050565b60006020820190508181036000830152611f2c81611ef0565b9050919050565b7f5265636569766572206d757374206465706f7369742066756e64730000000000600082015250565b6000611f69601b836117c0565b9150611f7482611f33565b602082019050919050565b60006020820190508181036000830152611f9881611f5c565b9050919050565b611fa8816116da565b82525050565b600060ff82169050919050565b611fc481611fae565b82525050565b6000608082019050611fdf6000830187611f9f565b611fec6020830186611fbb565b611ff96040830185611f9f565b6120066060830184611f9f565b95945050505050565b6000604082019050612024600083018561173d565b612031602083018461146d565b9392505050565b600081905092915050565b7f19457468657265756d205369676e6564204d6573736167653a0a333200000000600082015250565b6000612079601c83612038565b915061208482612043565b601c82019050919050565b6000819050919050565b6120aa6120a5826116da565b61208f565b82525050565b60006120bb8261206c565b91506120c78284612099565b60208201915081905092915050565b7f496e76616c6964207369676e6174757265206c656e6774680000000000000000600082015250565b600061210c6018836117c0565b9150612117826120d6565b602082019050919050565b6000602082019050818103600083015261213b816120ff565b9050919050565b600061214d82611fae565b915061215883611fae565b9250828201905060ff81111561217157612170611c9a565b5b92915050565b7f496e76616c696420760000000000000000000000000000000000000000000000600082015250565b60006121ad6009836117c0565b91506121b882612177565b602082019050919050565b600060208201905081810360008301526121dc816121a0565b905091905056fea26469706673582212205e5b6e961865b4390d6be3432470e5a5b9c4b95327fcae30eed3b0e53e2de09864736f6c634300081c0033",
  "linkReferences": {},
  "deployedLinkReferences": {}
}