{
  "_format": "hh-sol-artifact-1",
  "contractName": "BidirectionalPaymentChannel",
  "sourceName": "contracts/OfflinePayment.sol",
  "abi": [
    {
      "inputs": [
        {
          "internalType": "address",
          "name": "_partyB",
          "type": "address"
        },
        {
          "internalType": "uint256",
          "name": "_duration",
          "type": "uint256"
        }
      ],
      "stateMutability": "payable",
      "type": "constructor"
    },
    {
      "anonymous": false,
      "inputs": [
        {
          "indexed": false,
          "internalType": "uint256",
          "name": "balanceA",
          "type": "uint256"
        },
        {
          "indexed": false,
          "internalType": "uint256",
          "name": "balanceB",
          "type": "uint256"
        }
      ],
      "name": "ChannelClosed",
      "type": "event"
    },
    {
      "anonymous": false,
      "inputs": [
        {
          "indexed": true,
          "internalType": "address",
          "name": "from",
          "type": "address"
        },
        {
          "indexed": false,
          "internalType": "uint256",
          "name": "amount",
          "type": "uint256"
        }
      ],
      "name": "ChannelFunded",
      "type": "event"
    },
    {
      "anonymous": false,
      "inputs": [
        {
          "indexed": true,
          "internalType": "address",
          "name": "from",
          "type": "address"
        },
        {
          "indexed": true,
          "internalType": "address",
          "name": "to",
          "type": "address"
        },
        {
          "indexed": false,
          "internalType": "uint256",
          "name": "amount",
          "type": "uint256"
        }
      ],
      "name": "ChannelRequested",
      "type": "event"
    },
    {
      "anonymous": false,
      "inputs": [
        {
          "indexed": false,
          "internalType": "address",
          "name": "submitter",
          "type": "address"
        },
        {
          "indexed": false,
          "internalType": "uint256",
          "name": "balanceA",
          "type": "uint256"
        },
        {
          "indexed": false,
          "internalType": "uint256",
          "name": "balanceB",
          "type": "uint256"
        }
      ],
      "name": "FinalStateSubmitted",
      "type": "event"
    },
    {
      "inputs": [],
      "name": "depositA",
      "outputs": [
        {
          "internalType": "uint256",
          "name": "",
          "type": "uint256"
        }
      ],
      "stateMutability": "view",
      "type": "function"
    },
    {
      "inputs": [],
      "name": "depositB",
      "outputs": [
        {
          "internalType": "uint256",
          "name": "",
          "type": "uint256"
        }
      ],
      "stateMutability": "view",
      "type": "function"
    },
    {
      "inputs": [],
      "name": "expiryTime",
      "outputs": [
        {
          "internalType": "uint256",
          "name": "",
          "type": "uint256"
        }
      ],
      "stateMutability": "view",
      "type": "function"
    },
    {
      "inputs": [],
      "name": "fundChannelByPartyB",
      "outputs": [],
      "stateMutability": "payable",
      "type": "function"
    },
    {
      "inputs": [],
      "name": "fundReceiver",
      "outputs": [],
      "stateMutability": "payable",
      "type": "function"
    },
    {
      "inputs": [],
      "name": "isActive",
      "outputs": [
        {
          "internalType": "bool",
          "name": "",
          "type": "bool"
        }
      ],
      "stateMutability": "view",
      "type": "function"
    },
    {
      "inputs": [],
      "name": "isClosed",
      "outputs": [
        {
          "internalType": "bool",
          "name": "",
          "type": "bool"
        }
      ],
      "stateMutability": "view",
      "type": "function"
    },
    {
      "inputs": [],
      "name": "partyA",
      "outputs": [
        {
          "internalType": "address",
          "name": "",
          "type": "address"
        }
      ],
      "stateMutability": "view",
      "type": "function"
    },
    {
      "inputs": [],
      "name": "partyB",
      "outputs": [
        {
          "internalType": "address",
          "name": "",
          "type": "address"
        }
      ],
      "stateMutability": "view",
      "type": "function"
    },
    {
      "inputs": [
        {
          "internalType": "uint256",
          "name": "balanceA",
          "type": "uint256"
        },
        {
          "internalType": "uint256",
          "name": "balanceB",
          "type": "uint256"
        },
        {
          "internalType": "uint256",
          "name": "nonce",
          "type": "uint256"
        },
        {
          "internalType": "bytes",
          "name": "sigA",
          "type": "bytes"
        },
        {
          "internalType": "bytes",
          "name": "sigB",
          "type": "bytes"
        }
      ],
      "name": "submitFinalState",
      "outputs": [],
      "stateMutability": "nonpayable",
      "type": "function"
    },
    {
      "inputs": [],
      "name": "timeoutWithdraw",
      "outputs": [],
      "stateMutability": "nonpayable",
      "type": "function"
    },
    {
      "inputs": [
        {
          "internalType": "bytes32",
          "name": "",
          "type": "bytes32"
        }
      ],
      "name": "usedStates",
      "outputs": [
        {
          "internalType": "bool",
          "name": "",
          "type": "bool"
        }
      ],
      "stateMutability": "view",
      "type": "function"
    },
    {
      "stateMutability": "payable",
      "type": "receive"
    }
  ],
  "bytecode": "0x60806040526040516120e13803806120e183398181016040528101906100259190610264565b60003411610068576040517f08c379a000000000000000000000000000000000000000000000000000000000815260040161005f90610301565b60405180910390fd5b336000806101000a81548173ffffffffffffffffffffffffffffffffffffffff021916908373ffffffffffffffffffffffffffffffffffffffff16021790555081600160006101000a81548173ffffffffffffffffffffffffffffffffffffffff021916908373ffffffffffffffffffffffffffffffffffffffff1602179055503460038190555080426100fc9190610350565b6002819055506000600560016101000a81548160ff021916908315150217905550600160009054906101000a900473ffffffffffffffffffffffffffffffffffffffff1673ffffffffffffffffffffffffffffffffffffffff1660008054906101000a900473ffffffffffffffffffffffffffffffffffffffff1673ffffffffffffffffffffffffffffffffffffffff167f0e3f0cfac23f2f3e9fe519fc537efa0c7fa5c439652850956a60e5be43417c0b346040516101bc9190610393565b60405180910390a350506103ae565b600080fd5b600073ffffffffffffffffffffffffffffffffffffffff82169050919050565b60006101fb826101d0565b9050919050565b61020b816101f0565b811461021657600080fd5b50565b60008151905061022881610202565b92915050565b6000819050919050565b6102418161022e565b811461024c57600080fd5b50565b60008151905061025e81610238565b92915050565b6000806040838503121561027b5761027a6101cb565b5b600061028985828601610219565b925050602061029a8582860161024f565b9150509250929050565b600082825260208201905092915050565b7f41206d757374206465706f7369742066756e6473000000000000000000000000600082015250565b60006102eb6014836102a4565b91506102f6826102b5565b602082019050919050565b6000602082019050818103600083015261031a816102de565b9050919050565b7f4e487b7100000000000000000000000000000000000000000000000000000000600052601160045260246000fd5b600061035b8261022e565b91506103668361022e565b925082820190508082111561037e5761037d610321565b5b92915050565b61038d8161022e565b82525050565b60006020820190506103a86000830184610384565b92915050565b611d24806103bd6000396000f3fe6080604052600436106100ab5760003560e01c8063809bd1ec11610064578063809bd1ec1461018257806399bc0aea146101bf578063c2b6b58c146101ea578063c3fcd42a14610215578063f2daab0014610240578063fb4aa0a11461026b576100b2565b806310e1d8ca146100b757806322f3e2d4146100e2578063290401131461010d57806343737c5914610138578063671362c9146101425780636ff17bb01461016b576100b2565b366100b257005b600080fd5b3480156100c357600080fd5b506100cc610275565b6040516100d991906110ab565b60405180910390f35b3480156100ee57600080fd5b506100f7610299565b60405161010491906110e1565b60405180910390f35b34801561011957600080fd5b506101226102ac565b60405161012f91906110ab565b60405180910390f35b6101406102d2565b005b34801561014e57600080fd5b506101696004803603810190610164919061128c565b6104d9565b005b34801561017757600080fd5b50610180610a15565b005b34801561018e57600080fd5b506101a960048036038101906101a49190611375565b610cd6565b6040516101b691906110e1565b60405180910390f35b3480156101cb57600080fd5b506101d4610cf6565b6040516101e191906113b1565b60405180910390f35b3480156101f657600080fd5b506101ff610cfc565b60405161020c91906110e1565b60405180910390f35b34801561022157600080fd5b5061022a610d0f565b60405161023791906113b1565b60405180910390f35b34801561024c57600080fd5b50610255610d15565b60405161026291906113b1565b60405180910390f35b610273610d1b565b005b60008054906101000a900473ffffffffffffffffffffffffffffffffffffffff1681565b600560019054906101000a900460ff1681565b600160009054906101000a900473ffffffffffffffffffffffffffffffffffffffff1681565b600560009054906101000a900460ff1615610322576040517f08c379a000000000000000000000000000000000000000000000000000000000815260040161031990611429565b60405180910390fd5b600560019054906101000a900460ff1615610372576040517f08c379a000000000000000000000000000000000000000000000000000000000815260040161036990611495565b60405180910390fd5b600160009054906101000a900473ffffffffffffffffffffffffffffffffffffffff1673ffffffffffffffffffffffffffffffffffffffff163373ffffffffffffffffffffffffffffffffffffffff1614610402576040517f08c379a00000000000000000000000000000000000000000000000000000000081526004016103f990611501565b60405180910390fd5b60003411610445576040517f08c379a000000000000000000000000000000000000000000000000000000000815260040161043c9061156d565b60405180910390fd5b346004819055506001600560016101000a81548160ff021916908315150217905550600160009054906101000a900473ffffffffffffffffffffffffffffffffffffffff1673ffffffffffffffffffffffffffffffffffffffff167f098da306ddd2537f6447ac21569057632d7b220958901a59f69213c81495e648346040516104cf91906113b1565b60405180910390a2565b60008054906101000a900473ffffffffffffffffffffffffffffffffffffffff1673ffffffffffffffffffffffffffffffffffffffff163373ffffffffffffffffffffffffffffffffffffffff1614806105805750600160009054906101000a900473ffffffffffffffffffffffffffffffffffffffff1673ffffffffffffffffffffffffffffffffffffffff163373ffffffffffffffffffffffffffffffffffffffff16145b6105bf576040517f08c379a00000000000000000000000000000000000000000000000000000000081526004016105b6906115d9565b60405180910390fd5b600560019054906101000a900460ff1661060e576040517f08c379a000000000000000000000000000000000000000000000000000000000815260040161060590611645565b60405180910390fd5b600560009054906101000a900460ff161561065e576040517f08c379a000000000000000000000000000000000000000000000000000000000815260040161065590611429565b60405180910390fd5b60008585853060405160200161067794939291906116ce565b6040516020818303038152906040528051906020012090506006600082815260200190815260200160002060009054906101000a900460ff16156106f0576040517f08c379a00000000000000000000000000000000000000000000000000000000081526004016106e790611768565b60405180910390fd5b60016006600083815260200190815260200160002060006101000a81548160ff02191690831515021790555060008054906101000a900473ffffffffffffffffffffffffffffffffffffffff1673ffffffffffffffffffffffffffffffffffffffff1661075d8285610ed4565b73ffffffffffffffffffffffffffffffffffffffff16146107b3576040517f08c379a00000000000000000000000000000000000000000000000000000000081526004016107aa906117d4565b60405180910390fd5b600160009054906101000a900473ffffffffffffffffffffffffffffffffffffffff1673ffffffffffffffffffffffffffffffffffffffff166107f68284610ed4565b73ffffffffffffffffffffffffffffffffffffffff161461084c576040517f08c379a000000000000000000000000000000000000000000000000000000000815260040161084390611840565b60405180910390fd5b6001600560006101000a81548160ff021916908315150217905550478587610874919061188f565b11156108b5576040517f08c379a00000000000000000000000000000000000000000000000000000000081526004016108ac9061190f565b60405180910390fd5b60008611156109265760008054906101000a900473ffffffffffffffffffffffffffffffffffffffff1673ffffffffffffffffffffffffffffffffffffffff166108fc879081150290604051600060405180830381858888f19350505050158015610924573d6000803e3d6000fd5b505b600085111561099957600160009054906101000a900473ffffffffffffffffffffffffffffffffffffffff1673ffffffffffffffffffffffffffffffffffffffff166108fc869081150290604051600060405180830381858888f19350505050158015610997573d6000803e3d6000fd5b505b7ff291f294338e6549f4168c3d604247a724a918730f7cf7ae57753be0acb0657c3387876040516109cc9392919061192f565b60405180910390a17f1273b19bd37db7541ec10aebcb7899427619b2685565bd3c7b184c2732f8118e8686604051610a05929190611966565b60405180910390a1505050505050565b60008054906101000a900473ffffffffffffffffffffffffffffffffffffffff1673ffffffffffffffffffffffffffffffffffffffff163373ffffffffffffffffffffffffffffffffffffffff161480610abc5750600160009054906101000a900473ffffffffffffffffffffffffffffffffffffffff1673ffffffffffffffffffffffffffffffffffffffff163373ffffffffffffffffffffffffffffffffffffffff16145b610afb576040517f08c379a0000000000000000000000000000000000000000000000000000000008152600401610af2906115d9565b60405180910390fd5b600254421015610b40576040517f08c379a0000000000000000000000000000000000000000000000000000000008152600401610b37906119db565b60405180910390fd5b600560009054906101000a900460ff1615610b90576040517f08c379a0000000000000000000000000000000000000000000000000000000008152600401610b8790611429565b60405180910390fd5b6001600560006101000a81548160ff02191690831515021790555060006003541115610c205760008054906101000a900473ffffffffffffffffffffffffffffffffffffffff1673ffffffffffffffffffffffffffffffffffffffff166108fc6003549081150290604051600060405180830381858888f19350505050158015610c1e573d6000803e3d6000fd5b505b60006004541115610c9757600160009054906101000a900473ffffffffffffffffffffffffffffffffffffffff1673ffffffffffffffffffffffffffffffffffffffff166108fc6004549081150290604051600060405180830381858888f19350505050158015610c95573d6000803e3d6000fd5b505b7f1273b19bd37db7541ec10aebcb7899427619b2685565bd3c7b184c2732f8118e600354600454604051610ccc929190611966565b60405180910390a1565b60066020528060005260406000206000915054906101000a900460ff1681565b60025481565b600560009054906101000a900460ff1681565b60035481565b60045481565b600160009054906101000a900473ffffffffffffffffffffffffffffffffffffffff1673ffffffffffffffffffffffffffffffffffffffff163373ffffffffffffffffffffffffffffffffffffffff1614610dab576040517f08c379a0000000000000000000000000000000000000000000000000000000008152600401610da290611a47565b60405180910390fd5b600560019054906101000a900460ff1615610dfb576040517f08c379a0000000000000000000000000000000000000000000000000000000008152600401610df290611495565b60405180910390fd5b60003411610e3e576040517f08c379a0000000000000000000000000000000000000000000000000000000008152600401610e3590611ab3565b60405180910390fd5b346004819055506001600560016101000a81548160ff021916908315150217905550600160009054906101000a900473ffffffffffffffffffffffffffffffffffffffff1673ffffffffffffffffffffffffffffffffffffffff167f098da306ddd2537f6447ac21569057632d7b220958901a59f69213c81495e648600454604051610eca91906113b1565b60405180910390a2565b600080610ee084610f51565b90506000806000610ef086610f81565b92509250925060018484848460405160008152602001604052604051610f199493929190611afe565b6020604051602081039080840390855afa158015610f3b573d6000803e3d6000fd5b5050506020604051035194505050505092915050565b600081604051602001610f649190611bbb565b604051602081830303815290604052805190602001209050919050565b60008060006041845114610fca576040517f08c379a0000000000000000000000000000000000000000000000000000000008152600401610fc190611c2d565b60405180910390fd5b60008060006020870151925060408701519150606087015160001a9050601b8160ff16101561100357601b816110009190611c4d565b90505b601b8160ff1614806110185750601c8160ff16145b611057576040517f08c379a000000000000000000000000000000000000000000000000000000000815260040161104e90611cce565b60405180910390fd5b8083839550955095505050509193909250565b600073ffffffffffffffffffffffffffffffffffffffff82169050919050565b60006110958261106a565b9050919050565b6110a58161108a565b82525050565b60006020820190506110c0600083018461109c565b92915050565b60008115159050919050565b6110db816110c6565b82525050565b60006020820190506110f660008301846110d2565b92915050565b6000604051905090565b600080fd5b600080fd5b6000819050919050565b61112381611110565b811461112e57600080fd5b50565b6000813590506111408161111a565b92915050565b600080fd5b600080fd5b6000601f19601f8301169050919050565b7f4e487b7100000000000000000000000000000000000000000000000000000000600052604160045260246000fd5b61119982611150565b810181811067ffffffffffffffff821117156111b8576111b7611161565b5b80604052505050565b60006111cb6110fc565b90506111d78282611190565b919050565b600067ffffffffffffffff8211156111f7576111f6611161565b5b61120082611150565b9050602081019050919050565b82818337600083830152505050565b600061122f61122a846111dc565b6111c1565b90508281526020810184848401111561124b5761124a61114b565b5b61125684828561120d565b509392505050565b600082601f83011261127357611272611146565b5b813561128384826020860161121c565b91505092915050565b600080600080600060a086880312156112a8576112a7611106565b5b60006112b688828901611131565b95505060206112c788828901611131565b94505060406112d888828901611131565b935050606086013567ffffffffffffffff8111156112f9576112f861110b565b5b6113058882890161125e565b925050608086013567ffffffffffffffff8111156113265761132561110b565b5b6113328882890161125e565b9150509295509295909350565b6000819050919050565b6113528161133f565b811461135d57600080fd5b50565b60008135905061136f81611349565b92915050565b60006020828403121561138b5761138a611106565b5b600061139984828501611360565b91505092915050565b6113ab81611110565b82525050565b60006020820190506113c660008301846113a2565b92915050565b600082825260208201905092915050565b7f4368616e6e656c20697320616c726561647920636c6f73656400000000000000600082015250565b60006114136019836113cc565b915061141e826113dd565b602082019050919050565b6000602082019050818103600083015261144281611406565b9050919050565b7f4368616e6e656c20616c72656164792061637469766500000000000000000000600082015250565b600061147f6016836113cc565b915061148a82611449565b602082019050919050565b600060208201905081810360008301526114ae81611472565b9050919050565b7f4f6e6c7920506172747920422063616e2066756e640000000000000000000000600082015250565b60006114eb6015836113cc565b91506114f6826114b5565b602082019050919050565b6000602082019050818103600083015261151a816114de565b9050919050565b7f42206d757374206465706f7369742066756e6473000000000000000000000000600082015250565b60006115576014836113cc565b915061156282611521565b602082019050919050565b600060208201905081810360008301526115868161154a565b9050919050565b7f4e6f742061206368616e6e656c207061727469636970616e7400000000000000600082015250565b60006115c36019836113cc565b91506115ce8261158d565b602082019050919050565b600060208201905081810360008301526115f2816115b6565b9050919050565b7f4368616e6e656c206e6f74206163746976652079657400000000000000000000600082015250565b600061162f6016836113cc565b915061163a826115f9565b602082019050919050565b6000602082019050818103600083015261165e81611622565b9050919050565b6000819050919050565b61168061167b82611110565b611665565b82525050565b60008160601b9050919050565b600061169e82611686565b9050919050565b60006116b082611693565b9050919050565b6116c86116c38261108a565b6116a5565b82525050565b60006116da828761166f565b6020820191506116ea828661166f565b6020820191506116fa828561166f565b60208201915061170a82846116b7565b60148201915081905095945050505050565b7f537461746520616c726561647920757365640000000000000000000000000000600082015250565b60006117526012836113cc565b915061175d8261171c565b602082019050919050565b6000602082019050818103600083015261178181611745565b9050919050565b7f496e76616c6964207369676e617475726520666f722050617274792041000000600082015250565b60006117be601d836113cc565b91506117c982611788565b602082019050919050565b600060208201905081810360008301526117ed816117b1565b9050919050565b7f496e76616c6964207369676e617475726520666f722050617274792042000000600082015250565b600061182a601d836113cc565b9150611835826117f4565b602082019050919050565b600060208201905081810360008301526118598161181d565b9050919050565b7f4e487b7100000000000000000000000000000000000000000000000000000000600052601160045260246000fd5b600061189a82611110565b91506118a583611110565b92508282019050808211156118bd576118bc611860565b5b92915050565b7f496e76616c69642062616c616e63657300000000000000000000000000000000600082015250565b60006118f96010836113cc565b9150611904826118c3565b602082019050919050565b60006020820190508181036000830152611928816118ec565b9050919050565b6000606082019050611944600083018661109c565b61195160208301856113a2565b61195e60408301846113a2565b949350505050565b600060408201905061197b60008301856113a2565b61198860208301846113a2565b9392505050565b7f4368616e6e656c20686173206e6f742065787069726564207965740000000000600082015250565b60006119c5601b836113cc565b91506119d08261198f565b602082019050919050565b600060208201905081810360008301526119f4816119b8565b9050919050565b7f4f6e6c792072656365697665722063616e2066756e6400000000000000000000600082015250565b6000611a316016836113cc565b9150611a3c826119fb565b602082019050919050565b60006020820190508181036000830152611a6081611a24565b9050919050565b7f5265636569766572206d757374206465706f7369742066756e64730000000000600082015250565b6000611a9d601b836113cc565b9150611aa882611a67565b602082019050919050565b60006020820190508181036000830152611acc81611a90565b9050919050565b611adc8161133f565b82525050565b600060ff82169050919050565b611af881611ae2565b82525050565b6000608082019050611b136000830187611ad3565b611b206020830186611aef565b611b2d6040830185611ad3565b611b3a6060830184611ad3565b95945050505050565b600081905092915050565b7f19457468657265756d205369676e6564204d6573736167653a0a333200000000600082015250565b6000611b84601c83611b43565b9150611b8f82611b4e565b601c82019050919050565b6000819050919050565b611bb5611bb08261133f565b611b9a565b82525050565b6000611bc682611b77565b9150611bd28284611ba4565b60208201915081905092915050565b7f496e76616c6964207369676e6174757265206c656e6774680000000000000000600082015250565b6000611c176018836113cc565b9150611c2282611be1565b602082019050919050565b60006020820190508181036000830152611c4681611c0a565b9050919050565b6000611c5882611ae2565b9150611c6383611ae2565b9250828201905060ff811115611c7c57611c7b611860565b5b92915050565b7f496e76616c696420760000000000000000000000000000000000000000000000600082015250565b6000611cb86009836113cc565b9150611cc382611c82565b602082019050919050565b60006020820190508181036000830152611ce781611cab565b905091905056fea26469706673582212207f7a09acc5a0e54739f6473c6b1d7982e2be22531f7eca3ea4bdd566169072b664736f6c634300081c0033",
  "linkReferences": {},
  "deployedLinkReferences": {}
}